{
  "_format": "hh-sol-artifact-1",
  "contractName": "FruitTraceability",
  "sourceName": "contracts/FruitTraceability.sol",
  "abi": [
    {
      "inputs": [
        {
          "internalType": "address",
          "name": "_permissionControl",
          "type": "address"
        }
      ],
      "stateMutability": "nonpayable",
      "type": "constructor"
    },
    {
      "anonymous": false,
      "inputs": [
        {
          "indexed": true,
          "internalType": "uint256",
          "name": "batchId",
          "type": "uint256"
        },
        {
          "indexed": true,
          "internalType": "address",
          "name": "farmer",
          "type": "address"
        },
        {
          "indexed": false,
          "internalType": "string",
          "name": "metadata",
          "type": "string"
        }
      ],
      "name": "BatchRegistered",
      "type": "event"
    },
    {
      "anonymous": false,
      "inputs": [
        {
          "indexed": true,
          "internalType": "uint256",
          "name": "batchId",
          "type": "uint256"
        },
        {
          "indexed": true,
          "internalType": "address",
          "name": "from",
          "type": "address"
        },
        {
          "indexed": true,
          "internalType": "address",
          "name": "to",
          "type": "address"
        }
      ],
      "name": "OwnershipTransferred",
      "type": "event"
    },
    {
      "anonymous": false,
      "inputs": [
        {
          "indexed": true,
          "internalType": "uint256",
          "name": "batchId",
          "type": "uint256"
        },
        {
          "indexed": false,
          "internalType": "enum FruitTraceability.StageType",
          "name": "stage",
          "type": "uint8"
        },
        {
          "indexed": false,
          "internalType": "string",
          "name": "location",
          "type": "string"
        },
        {
          "indexed": false,
          "internalType": "uint256",
          "name": "timestamp",
          "type": "uint256"
        },
        {
          "indexed": true,
          "internalType": "address",
          "name": "actor",
          "type": "address"
        }
      ],
      "name": "StageRecorded",
      "type": "event"
    },
    {
      "inputs": [
        {
          "internalType": "uint256",
          "name": "batchId",
          "type": "uint256"
        }
      ],
      "name": "getBatchOverview",
      "outputs": [
        {
          "internalType": "string",
          "name": "metadata",
          "type": "string"
        },
        {
          "internalType": "address",
          "name": "currentOwner",
          "type": "address"
        },
        {
          "internalType": "uint256",
          "name": "stageCount",
          "type": "uint256"
        }
      ],
      "stateMutability": "view",
      "type": "function"
    },
    {
      "inputs": [
        {
          "internalType": "uint256",
          "name": "batchId",
          "type": "uint256"
        }
      ],
      "name": "getCurrentOwner",
      "outputs": [
        {
          "internalType": "address",
          "name": "",
          "type": "address"
        }
      ],
      "stateMutability": "view",
      "type": "function"
    },
    {
      "inputs": [
        {
          "internalType": "uint256",
          "name": "batchId",
          "type": "uint256"
        },
        {
          "internalType": "uint256",
          "name": "index",
          "type": "uint256"
        }
      ],
      "name": "getStage",
      "outputs": [
        {
          "internalType": "enum FruitTraceability.StageType",
          "name": "stage",
          "type": "uint8"
        },
        {
          "internalType": "string",
          "name": "location",
          "type": "string"
        },
        {
          "internalType": "uint256",
          "name": "timestamp",
          "type": "uint256"
        },
        {
          "internalType": "address",
          "name": "actor",
          "type": "address"
        }
      ],
      "stateMutability": "view",
      "type": "function"
    },
    {
      "inputs": [
        {
          "internalType": "uint256",
          "name": "batchId",
          "type": "uint256"
        },
        {
          "internalType": "enum FruitTraceability.StageType",
          "name": "stage",
          "type": "uint8"
        },
        {
          "internalType": "string",
          "name": "location",
          "type": "string"
        },
        {
          "internalType": "uint256",
          "name": "timestamp",
          "type": "uint256"
        }
      ],
      "name": "internalRecordStage",
      "outputs": [],
      "stateMutability": "nonpayable",
      "type": "function"
    },
    {
      "inputs": [
        {
          "internalType": "uint256",
          "name": "batchId",
          "type": "uint256"
        },
        {
          "internalType": "string",
          "name": "metadata",
          "type": "string"
        },
        {
          "internalType": "address",
          "name": "farmer",
          "type": "address"
        }
      ],
      "name": "internalRegisterBatch",
      "outputs": [],
      "stateMutability": "nonpayable",
      "type": "function"
    },
    {
      "inputs": [
        {
          "internalType": "uint256",
          "name": "batchId",
          "type": "uint256"
        },
        {
          "internalType": "address",
          "name": "from",
          "type": "address"
        },
        {
          "internalType": "address",
          "name": "to",
          "type": "address"
        }
      ],
      "name": "internalTransferOwnership",
      "outputs": [],
      "stateMutability": "nonpayable",
      "type": "function"
    },
    {
      "inputs": [],
      "name": "permissionControl",
      "outputs": [
        {
          "internalType": "address",
          "name": "",
          "type": "address"
        }
      ],
      "stateMutability": "view",
      "type": "function"
    }
  ],
  "bytecode": "0x60a060405234801561001057600080fd5b5060405161198a38038061198a8339818101604052810190610032919061013e565b600073ffffffffffffffffffffffffffffffffffffffff168173ffffffffffffffffffffffffffffffffffffffff16036100a1576040517f08c379a0000000000000000000000000000000000000000000000000000000008152600401610098906101c8565b60405180910390fd5b8073ffffffffffffffffffffffffffffffffffffffff1660808173ffffffffffffffffffffffffffffffffffffffff1681525050506101e8565b600080fd5b600073ffffffffffffffffffffffffffffffffffffffff82169050919050565b600061010b826100e0565b9050919050565b61011b81610100565b811461012657600080fd5b50565b60008151905061013881610112565b92915050565b600060208284031215610154576101536100db565b5b600061016284828501610129565b91505092915050565b600082825260208201905092915050565b7f496e76616c6964207065726d697373696f6e20636f6e74726163740000000000600082015250565b60006101b2601b8361016b565b91506101bd8261017c565b602082019050919050565b600060208201905081810360008301526101e1816101a5565b9050919050565b6080516117726102186000396000818161018b015281816103b60152818161099401526109b801526117726000f3fe608060405234801561001057600080fd5b506004361061007d5760003560e01c8063882471121161005b57806388247112146100ea5780638b8c7e501461011c578063ad6538f31461014f578063dd9833081461016d5761007d565b80630ef278ba14610082578063578d2a4c1461009e5780637ace341b146100ba575b600080fd5b61009c60048036038101906100979190610c59565b610189565b005b6100b860048036038101906100b39190610d36565b6103b4565b005b6100d460048036038101906100cf9190610dbe565b610659565b6040516100e19190610dfa565b60405180910390f35b61010460048036038101906100ff9190610dbe565b6106ee565b60405161011393929190610eb4565b60405180910390f35b61013660048036038101906101319190610ef2565b610825565b6040516101469493929190610fa9565b60405180910390f35b610157610992565b6040516101649190610dfa565b60405180910390f35b61018760048036038101906101829190610ff5565b6109b6565b005b7f000000000000000000000000000000000000000000000000000000000000000073ffffffffffffffffffffffffffffffffffffffff163373ffffffffffffffffffffffffffffffffffffffff1614610217576040517f08c379a000000000000000000000000000000000000000000000000000000000815260040161020e906110b5565b60405180910390fd5b600080600085815260200190815260200160002090508060000160009054906101000a900460ff1661027e576040517f08c379a000000000000000000000000000000000000000000000000000000000815260040161027590611121565b60405180910390fd5b8273ffffffffffffffffffffffffffffffffffffffff168160020160009054906101000a900473ffffffffffffffffffffffffffffffffffffffff1673ffffffffffffffffffffffffffffffffffffffff1614610310576040517f08c379a00000000000000000000000000000000000000000000000000000000081526004016103079061118d565b60405180910390fd5b818160020160006101000a81548173ffffffffffffffffffffffffffffffffffffffff021916908373ffffffffffffffffffffffffffffffffffffffff1602179055508173ffffffffffffffffffffffffffffffffffffffff168373ffffffffffffffffffffffffffffffffffffffff16857f16b85f49bf01212961345d3016c9a531894accf62eb7680f2045d79185cc0ec060405160405180910390a450505050565b7f000000000000000000000000000000000000000000000000000000000000000073ffffffffffffffffffffffffffffffffffffffff163373ffffffffffffffffffffffffffffffffffffffff1614610442576040517f08c379a0000000000000000000000000000000000000000000000000000000008152600401610439906110b5565b60405180910390fd5b600080600087815260200190815260200160002090508060000160009054906101000a900460ff166104a9576040517f08c379a00000000000000000000000000000000000000000000000000000000081526004016104a090611121565b60405180910390fd5b8060040160405180608001604052808760058111156104cb576104ca610f32565b5b815260200186868080601f016020809104026020016040519081016040528093929190818152602001838380828437600081840152601f19601f8201169050808301925050505050505081526020018481526020013273ffffffffffffffffffffffffffffffffffffffff16815250908060018154018082558091505060019003906000526020600020906004020160009091909190915060008201518160000160006101000a81548160ff0219169083600581111561058e5761058d610f32565b5b021790555060208201518160010190816105a891906113e8565b506040820151816002015560608201518160030160006101000a81548173ffffffffffffffffffffffffffffffffffffffff021916908373ffffffffffffffffffffffffffffffffffffffff16021790555050503273ffffffffffffffffffffffffffffffffffffffff16867f813a22031fd88c8b4c80bb9c5c69ea3eae4d7b631bbd8f8698eb44461856c4308787878760405161064994939291906114f6565b60405180910390a3505050505050565b60008060008084815260200190815260200160002090508060000160009054906101000a900460ff166106c1576040517f08c379a00000000000000000000000000000000000000000000000000000000081526004016106b890611121565b60405180910390fd5b8060020160009054906101000a900473ffffffffffffffffffffffffffffffffffffffff16915050919050565b6060600080600080600086815260200190815260200160002090508060000160009054906101000a900460ff1661075a576040517f08c379a000000000000000000000000000000000000000000000000000000000815260040161075190611121565b60405180910390fd5b806001018160020160009054906101000a900473ffffffffffffffffffffffffffffffffffffffff1682600401805490508280546107979061120b565b80601f01602080910402602001604051908101604052809291908181526020018280546107c39061120b565b80156108105780601f106107e557610100808354040283529160200191610810565b820191906000526020600020905b8154815290600101906020018083116107f357829003601f168201915b50505050509250935093509350509193909250565b60006060600080600080600088815260200190815260200160002090508060040180549050861061088b576040517f08c379a000000000000000000000000000000000000000000000000000000000815260040161088290611582565b60405180910390fd5b60008160040187815481106108a3576108a26115a2565b5b906000526020600020906004020190508060000160009054906101000a900460ff168160010182600201548360030160009054906101000a900473ffffffffffffffffffffffffffffffffffffffff168280546108ff9061120b565b80601f016020809104026020016040519081016040528092919081815260200182805461092b9061120b565b80156109785780601f1061094d57610100808354040283529160200191610978565b820191906000526020600020905b81548152906001019060200180831161095b57829003601f168201915b505050505092509550955095509550505092959194509250565b7f000000000000000000000000000000000000000000000000000000000000000081565b7f000000000000000000000000000000000000000000000000000000000000000073ffffffffffffffffffffffffffffffffffffffff163373ffffffffffffffffffffffffffffffffffffffff1614610a44576040517f08c379a0000000000000000000000000000000000000000000000000000000008152600401610a3b906110b5565b60405180910390fd5b600080600086815260200190815260200160002090508060000160009054906101000a900460ff1615610aac576040517f08c379a0000000000000000000000000000000000000000000000000000000008152600401610aa39061161d565b60405180910390fd5b60018160000160006101000a81548160ff0219169083151502179055508383826001019182610adc929190611648565b50818160020160006101000a81548173ffffffffffffffffffffffffffffffffffffffff021916908373ffffffffffffffffffffffffffffffffffffffff160217905550818160030160006101000a81548173ffffffffffffffffffffffffffffffffffffffff021916908373ffffffffffffffffffffffffffffffffffffffff1602179055508173ffffffffffffffffffffffffffffffffffffffff16857f2e0106fefd894a64f62b0e7c75f0824f82827aab6e81c05a6c85fff890860d918686604051610bac929190611718565b60405180910390a35050505050565b600080fd5b600080fd5b6000819050919050565b610bd881610bc5565b8114610be357600080fd5b50565b600081359050610bf581610bcf565b92915050565b600073ffffffffffffffffffffffffffffffffffffffff82169050919050565b6000610c2682610bfb565b9050919050565b610c3681610c1b565b8114610c4157600080fd5b50565b600081359050610c5381610c2d565b92915050565b600080600060608486031215610c7257610c71610bbb565b5b6000610c8086828701610be6565b9350506020610c9186828701610c44565b9250506040610ca286828701610c44565b9150509250925092565b60068110610cb957600080fd5b50565b600081359050610ccb81610cac565b92915050565b600080fd5b600080fd5b600080fd5b60008083601f840112610cf657610cf5610cd1565b5b8235905067ffffffffffffffff811115610d1357610d12610cd6565b5b602083019150836001820283011115610d2f57610d2e610cdb565b5b9250929050565b600080600080600060808688031215610d5257610d51610bbb565b5b6000610d6088828901610be6565b9550506020610d7188828901610cbc565b945050604086013567ffffffffffffffff811115610d9257610d91610bc0565b5b610d9e88828901610ce0565b93509350506060610db188828901610be6565b9150509295509295909350565b600060208284031215610dd457610dd3610bbb565b5b6000610de284828501610be6565b91505092915050565b610df481610c1b565b82525050565b6000602082019050610e0f6000830184610deb565b92915050565b600081519050919050565b600082825260208201905092915050565b60005b83811015610e4f578082015181840152602081019050610e34565b60008484015250505050565b6000601f19601f8301169050919050565b6000610e7782610e15565b610e818185610e20565b9350610e91818560208601610e31565b610e9a81610e5b565b840191505092915050565b610eae81610bc5565b82525050565b60006060820190508181036000830152610ece8186610e6c565b9050610edd6020830185610deb565b610eea6040830184610ea5565b949350505050565b60008060408385031215610f0957610f08610bbb565b5b6000610f1785828601610be6565b9250506020610f2885828601610be6565b9150509250929050565b7f4e487b7100000000000000000000000000000000000000000000000000000000600052602160045260246000fd5b60068110610f7257610f71610f32565b5b50565b6000819050610f8382610f61565b919050565b6000610f9382610f75565b9050919050565b610fa381610f88565b82525050565b6000608082019050610fbe6000830187610f9a565b8181036020830152610fd08186610e6c565b9050610fdf6040830185610ea5565b610fec6060830184610deb565b95945050505050565b6000806000806060858703121561100f5761100e610bbb565b5b600061101d87828801610be6565b945050602085013567ffffffffffffffff81111561103e5761103d610bc0565b5b61104a87828801610ce0565b9350935050604061105d87828801610c44565b91505092959194509250565b7f4e6f74205065726d697373696f6e436f6e74726f6c0000000000000000000000600082015250565b600061109f601583610e20565b91506110aa82611069565b602082019050919050565b600060208201905081810360008301526110ce81611092565b9050919050565b7f4261746368206e6f7420666f756e640000000000000000000000000000000000600082015250565b600061110b600f83610e20565b9150611116826110d5565b602082019050919050565b6000602082019050818103600083015261113a816110fe565b9050919050565b7f4e6f742063757272656e74206f776e6572000000000000000000000000000000600082015250565b6000611177601183610e20565b915061118282611141565b602082019050919050565b600060208201905081810360008301526111a68161116a565b9050919050565b7f4e487b7100000000000000000000000000000000000000000000000000000000600052604160045260246000fd5b7f4e487b7100000000000000000000000000000000000000000000000000000000600052602260045260246000fd5b6000600282049050600182168061122357607f821691505b602082108103611236576112356111dc565b5b50919050565b60008190508160005260206000209050919050565b60006020601f8301049050919050565b600082821b905092915050565b60006008830261129e7fffffffffffffffffffffffffffffffffffffffffffffffffffffffffffffffff82611261565b6112a88683611261565b95508019841693508086168417925050509392505050565b6000819050919050565b60006112e56112e06112db84610bc5565b6112c0565b610bc5565b9050919050565b6000819050919050565b6112ff836112ca565b61131361130b826112ec565b84845461126e565b825550505050565b600090565b61132861131b565b6113338184846112f6565b505050565b5b818110156113575761134c600082611320565b600181019050611339565b5050565b601f82111561139c5761136d8161123c565b61137684611251565b81016020851015611385578190505b61139961139185611251565b830182611338565b50505b505050565b600082821c905092915050565b60006113bf600019846008026113a1565b1980831691505092915050565b60006113d883836113ae565b9150826002028217905092915050565b6113f182610e15565b67ffffffffffffffff81111561140a576114096111ad565b5b611414825461120b565b61141f82828561135b565b600060209050601f8311600181146114525760008415611440578287015190505b61144a85826113cc565b8655506114b2565b601f1984166114608661123c565b60005b8281101561148857848901518255600182019150602085019450602081019050611463565b868310156114a557848901516114a1601f8916826113ae565b8355505b6001600288020188555050505b505050505050565b82818337600083830152505050565b60006114d58385610e20565b93506114e28385846114ba565b6114eb83610e5b565b840190509392505050565b600060608201905061150b6000830187610f9a565b818103602083015261151e8185876114c9565b905061152d6040830184610ea5565b95945050505050565b7f496e646578206f7574206f662072616e67650000000000000000000000000000600082015250565b600061156c601283610e20565b915061157782611536565b602082019050919050565b6000602082019050818103600083015261159b8161155f565b9050919050565b7f4e487b7100000000000000000000000000000000000000000000000000000000600052603260045260246000fd5b7f426174636820616c726561647920657869737473000000000000000000000000600082015250565b6000611607601483610e20565b9150611612826115d1565b602082019050919050565b60006020820190508181036000830152611636816115fa565b9050919050565b600082905092915050565b611652838361163d565b67ffffffffffffffff81111561166b5761166a6111ad565b5b611675825461120b565b61168082828561135b565b6000601f8311600181146116af576000841561169d578287013590505b6116a785826113cc565b86555061170f565b601f1984166116bd8661123c565b60005b828110156116e5578489013582556001820191506020850194506020810190506116c0565b8683101561170257848901356116fe601f8916826113ae565b8355505b6001600288020188555050505b50505050505050565b600060208201905081810360008301526117338184866114c9565b9050939250505056fea26469706673582212206f4abc0d8849eac940ff90db0334df8d56957c31bd5ac93e04fd6b66308508f064736f6c634300081c0033",
  "linkReferences": {},
  "deployedLinkReferences": {}
}