{
  "_format": "hh-sol-artifact-1",
  "contractName": "PermissionControl",
  "sourceName": "contracts/PermissionControl.sol",
  "abi": [
    {
      "inputs": [
        {
          "internalType": "address",
          "name": "_traceability",
          "type": "address"
        }
      ],
      "stateMutability": "nonpayable",
      "type": "constructor"
    },
    {
      "inputs": [],
      "name": "AccessControlBadConfirmation",
      "type": "error"
    },
    {
      "inputs": [
        {
          "internalType": "address",
          "name": "account",
          "type": "address"
        },
        {
          "internalType": "bytes32",
          "name": "neededRole",
          "type": "bytes32"
        }
      ],
      "name": "AccessControlUnauthorizedAccount",
      "type": "error"
    },
    {
      "anonymous": false,
      "inputs": [
        {
          "indexed": true,
          "internalType": "uint256",
          "name": "batchId",
          "type": "uint256"
        },
        {
          "indexed": true,
          "internalType": "address",
          "name": "from",
          "type": "address"
        },
        {
          "indexed": true,
          "internalType": "address",
          "name": "to",
          "type": "address"
        }
      ],
      "name": "OwnershipTransferRequested",
      "type": "event"
    },
    {
      "anonymous": false,
      "inputs": [
        {
          "indexed": true,
          "internalType": "bytes32",
          "name": "role",
          "type": "bytes32"
        },
        {
          "indexed": true,
          "internalType": "bytes32",
          "name": "previousAdminRole",
          "type": "bytes32"
        },
        {
          "indexed": true,
          "internalType": "bytes32",
          "name": "newAdminRole",
          "type": "bytes32"
        }
      ],
      "name": "RoleAdminChanged",
      "type": "event"
    },
    {
      "anonymous": false,
      "inputs": [
        {
          "indexed": true,
          "internalType": "bytes32",
          "name": "role",
          "type": "bytes32"
        },
        {
          "indexed": true,
          "internalType": "address",
          "name": "account",
          "type": "address"
        },
        {
          "indexed": true,
          "internalType": "address",
          "name": "sender",
          "type": "address"
        }
      ],
      "name": "RoleGranted",
      "type": "event"
    },
    {
      "anonymous": false,
      "inputs": [
        {
          "indexed": true,
          "internalType": "bytes32",
          "name": "role",
          "type": "bytes32"
        },
        {
          "indexed": true,
          "internalType": "address",
          "name": "account",
          "type": "address"
        },
        {
          "indexed": true,
          "internalType": "address",
          "name": "sender",
          "type": "address"
        }
      ],
      "name": "RoleGrantedLogged",
      "type": "event"
    },
    {
      "anonymous": false,
      "inputs": [
        {
          "indexed": true,
          "internalType": "bytes32",
          "name": "role",
          "type": "bytes32"
        },
        {
          "indexed": true,
          "internalType": "address",
          "name": "account",
          "type": "address"
        },
        {
          "indexed": true,
          "internalType": "address",
          "name": "sender",
          "type": "address"
        }
      ],
      "name": "RoleRevoked",
      "type": "event"
    },
    {
      "anonymous": false,
      "inputs": [
        {
          "indexed": true,
          "internalType": "bytes32",
          "name": "role",
          "type": "bytes32"
        },
        {
          "indexed": true,
          "internalType": "address",
          "name": "account",
          "type": "address"
        },
        {
          "indexed": true,
          "internalType": "address",
          "name": "sender",
          "type": "address"
        }
      ],
      "name": "RoleRevokedLogged",
      "type": "event"
    },
    {
      "inputs": [],
      "name": "CONSUMER_ROLE",
      "outputs": [
        {
          "internalType": "bytes32",
          "name": "",
          "type": "bytes32"
        }
      ],
      "stateMutability": "view",
      "type": "function"
    },
    {
      "inputs": [],
      "name": "DEFAULT_ADMIN_ROLE",
      "outputs": [
        {
          "internalType": "bytes32",
          "name": "",
          "type": "bytes32"
        }
      ],
      "stateMutability": "view",
      "type": "function"
    },
    {
      "inputs": [],
      "name": "FARMER_ROLE",
      "outputs": [
        {
          "internalType": "bytes32",
          "name": "",
          "type": "bytes32"
        }
      ],
      "stateMutability": "view",
      "type": "function"
    },
    {
      "inputs": [],
      "name": "INSPECTOR_ROLE",
      "outputs": [
        {
          "internalType": "bytes32",
          "name": "",
          "type": "bytes32"
        }
      ],
      "stateMutability": "view",
      "type": "function"
    },
    {
      "inputs": [],
      "name": "RETAILER_ROLE",
      "outputs": [
        {
          "internalType": "bytes32",
          "name": "",
          "type": "bytes32"
        }
      ],
      "stateMutability": "view",
      "type": "function"
    },
    {
      "inputs": [
        {
          "internalType": "bytes32",
          "name": "role",
          "type": "bytes32"
        }
      ],
      "name": "getRoleAdmin",
      "outputs": [
        {
          "internalType": "bytes32",
          "name": "",
          "type": "bytes32"
        }
      ],
      "stateMutability": "view",
      "type": "function"
    },
    {
      "inputs": [
        {
          "internalType": "bytes32",
          "name": "role",
          "type": "bytes32"
        },
        {
          "internalType": "address",
          "name": "account",
          "type": "address"
        }
      ],
      "name": "grantRole",
      "outputs": [],
      "stateMutability": "nonpayable",
      "type": "function"
    },
    {
      "inputs": [
        {
          "internalType": "bytes32",
          "name": "role",
          "type": "bytes32"
        },
        {
          "internalType": "address",
          "name": "account",
          "type": "address"
        }
      ],
      "name": "hasRole",
      "outputs": [
        {
          "internalType": "bool",
          "name": "",
          "type": "bool"
        }
      ],
      "stateMutability": "view",
      "type": "function"
    },
    {
      "inputs": [
        {
          "internalType": "uint256",
          "name": "batchId",
          "type": "uint256"
        },
        {
          "internalType": "enum FruitTraceability.StageType",
          "name": "stage",
          "type": "uint8"
        },
        {
          "internalType": "string",
          "name": "location",
          "type": "string"
        },
        {
          "internalType": "uint256",
          "name": "timestamp",
          "type": "uint256"
        }
      ],
      "name": "recordStage",
      "outputs": [],
      "stateMutability": "nonpayable",
      "type": "function"
    },
    {
      "inputs": [
        {
          "internalType": "uint256",
          "name": "batchId",
          "type": "uint256"
        },
        {
          "internalType": "string",
          "name": "metadata",
          "type": "string"
        }
      ],
      "name": "registerBatch",
      "outputs": [],
      "stateMutability": "nonpayable",
      "type": "function"
    },
    {
      "inputs": [
        {
          "internalType": "bytes32",
          "name": "role",
          "type": "bytes32"
        },
        {
          "internalType": "address",
          "name": "callerConfirmation",
          "type": "address"
        }
      ],
      "name": "renounceRole",
      "outputs": [],
      "stateMutability": "nonpayable",
      "type": "function"
    },
    {
      "inputs": [
        {
          "internalType": "uint256",
          "name": "batchId",
          "type": "uint256"
        },
        {
          "internalType": "address",
          "name": "newOwner",
          "type": "address"
        }
      ],
      "name": "requestOwnershipTransfer",
      "outputs": [],
      "stateMutability": "nonpayable",
      "type": "function"
    },
    {
      "inputs": [
        {
          "internalType": "bytes32",
          "name": "role",
          "type": "bytes32"
        },
        {
          "internalType": "address",
          "name": "account",
          "type": "address"
        }
      ],
      "name": "revokeRole",
      "outputs": [],
      "stateMutability": "nonpayable",
      "type": "function"
    },
    {
      "inputs": [
        {
          "internalType": "address",
          "name": "newAddr",
          "type": "address"
        }
      ],
      "name": "setTraceabilityContract",
      "outputs": [],
      "stateMutability": "nonpayable",
      "type": "function"
    },
    {
      "inputs": [
        {
          "internalType": "bytes4",
          "name": "interfaceId",
          "type": "bytes4"
        }
      ],
      "name": "supportsInterface",
      "outputs": [
        {
          "internalType": "bool",
          "name": "",
          "type": "bool"
        }
      ],
      "stateMutability": "view",
      "type": "function"
    },
    {
      "inputs": [],
      "name": "traceabilityContract",
      "outputs": [
        {
          "internalType": "address",
          "name": "",
          "type": "address"
        }
      ],
      "stateMutability": "view",
      "type": "function"
    }
  ],
  "bytecode": "0x608060405234801561001057600080fd5b50604051612fdc380380612fdc833981810160405281019061003291906102a5565b6100456000801b336100c660201b60201c565b5060003060405161005590610235565b61005f91906102e1565b604051809103906000f08015801561007b573d6000803e3d6000fd5b50905080600160006101000a81548173ffffffffffffffffffffffffffffffffffffffff021916908373ffffffffffffffffffffffffffffffffffffffff16021790555050506102fc565b60006100d883836101c360201b60201c565b6101b857600160008085815260200190815260200160002060000160008473ffffffffffffffffffffffffffffffffffffffff1673ffffffffffffffffffffffffffffffffffffffff16815260200190815260200160002060006101000a81548160ff02191690831515021790555061015561022d60201b60201c565b73ffffffffffffffffffffffffffffffffffffffff168273ffffffffffffffffffffffffffffffffffffffff16847f2f8788117e7eff1d82e926ec794901d17c78024a50270940304540a733656f0d60405160405180910390a4600190506101bd565b600090505b92915050565b600080600084815260200190815260200160002060000160008373ffffffffffffffffffffffffffffffffffffffff1673ffffffffffffffffffffffffffffffffffffffff16815260200190815260200160002060009054906101000a900460ff16905092915050565b600033905090565b61198a8061165283390190565b600080fd5b600073ffffffffffffffffffffffffffffffffffffffff82169050919050565b600061027282610247565b9050919050565b61028281610267565b811461028d57600080fd5b50565b60008151905061029f81610279565b92915050565b6000602082840312156102bb576102ba610242565b5b60006102c984828501610290565b91505092915050565b6102db81610267565b82525050565b60006020820190506102f660008301846102d2565b92915050565b6113478061030b6000396000f3fe608060405234801561001057600080fd5b50600436106101005760003560e01c806385b0ef9411610097578063d547741f11610066578063d547741f14610299578063d837f4a0146102b5578063e3a3c522146102d1578063f3943970146102ef57610100565b806385b0ef941461021357806391d148541461022f578063a217fddf1461025f578063b27198ec1461027d57610100565b806336568abe116100d357806336568abe1461019f57806346a26669146101bb5780634bc02da6146101d75780637fc3e9ff146101f557610100565b806301ffc9a7146101055780632115e7bf14610135578063248a9ca3146101535780632f2ff15d14610183575b600080fd5b61011f600480360381019061011a9190610d06565b61030d565b60405161012c9190610d4e565b60405180910390f35b61013d610387565b60405161014a9190610d82565b60405180910390f35b61016d60048036038101906101689190610dc9565b6103ab565b60405161017a9190610d82565b60405180910390f35b61019d60048036038101906101989190610e54565b6103ca565b005b6101b960048036038101906101b49190610e54565b610446565b005b6101d560048036038101906101d09190610e94565b6104c1565b005b6101df610513565b6040516101ec9190610d82565b60405180910390f35b6101fd610537565b60405161020a9190610ed0565b60405180910390f35b61022d60048036038101906102289190610f86565b61055d565b005b61024960048036038101906102449190610e54565b610620565b6040516102569190610d4e565b60405180910390f35b61026761068a565b6040516102749190610d82565b60405180910390f35b6102976004803603810190610292919061100b565b610691565b005b6102b360048036038101906102ae9190610e54565b6107c7565b005b6102cf60048036038101906102ca9190611093565b610843565b005b6102d961095e565b6040516102e69190610d82565b60405180910390f35b6102f7610982565b6040516103049190610d82565b60405180910390f35b60007f7965db0b000000000000000000000000000000000000000000000000000000007bffffffffffffffffffffffffffffffffffffffffffffffffffffffff1916827bffffffffffffffffffffffffffffffffffffffffffffffffffffffff19161480610380575061037f826109a6565b5b9050919050565b7f2a5f906c256a5d799494fcd066e1f6c077689de1cdb65052a1624de4bace99bf81565b6000806000838152602001908152602001600020600101549050919050565b6103d3826103ab565b6103dc81610a10565b6103e68383610a24565b3373ffffffffffffffffffffffffffffffffffffffff168273ffffffffffffffffffffffffffffffffffffffff16847fad83975d21c93fb544b90f3d77ea2878b2521f7535e08b6d8f8820ea1c228d6360405160405180910390a4505050565b61044e610a46565b73ffffffffffffffffffffffffffffffffffffffff168173ffffffffffffffffffffffffffffffffffffffff16146104b2576040517f6697b23200000000000000000000000000000000000000000000000000000000815260040160405180910390fd5b6104bc8282610a4e565b505050565b6000801b6104ce81610a10565b81600160006101000a81548173ffffffffffffffffffffffffffffffffffffffff021916908373ffffffffffffffffffffffffffffffffffffffff1602179055505050565b7f9d56108290ea0bc9c5c59c3ad357dca9d1b29ed7f3ae1443bef2fa2159bdf5e881565b600160009054906101000a900473ffffffffffffffffffffffffffffffffffffffff1681565b7f7c6181838a71a779e445600d4c6ecbe16bacf2b3c5bda69c29fada66d1b645d161058781610a10565b600160009054906101000a900473ffffffffffffffffffffffffffffffffffffffff1673ffffffffffffffffffffffffffffffffffffffff1663dd983308858585336040518563ffffffff1660e01b81526004016105e89493929190611140565b600060405180830381600087803b15801561060257600080fd5b505af1158015610616573d6000803e3d6000fd5b5050505050505050565b600080600084815260200190815260200160002060000160008373ffffffffffffffffffffffffffffffffffffffff1673ffffffffffffffffffffffffffffffffffffffff16815260200190815260200160002060009054906101000a900460ff16905092915050565b6000801b81565b6106bb7f273dcf2136c7d8ef632bb8ef13dbca69a8f36fa620c7468671b3153d46a211c033610620565b806106ec57506106eb7f2a5f906c256a5d799494fcd066e1f6c077689de1cdb65052a1624de4bace99bf33610620565b5b61072b576040517f08c379a0000000000000000000000000000000000000000000000000000000008152600401610722906111cc565b60405180910390fd5b600160009054906101000a900473ffffffffffffffffffffffffffffffffffffffff1673ffffffffffffffffffffffffffffffffffffffff1663578d2a4c86868686866040518663ffffffff1660e01b815260040161078e959493929190611263565b600060405180830381600087803b1580156107a857600080fd5b505af11580156107bc573d6000803e3d6000fd5b505050505050505050565b6107d0826103ab565b6107d981610a10565b6107e38383610b40565b3373ffffffffffffffffffffffffffffffffffffffff168273ffffffffffffffffffffffffffffffffffffffff16847fa5ea107f4c60853b6dffa85b7ff71185dc2dfc5e93fbba443c933f1e11eb37b160405160405180910390a4505050565b7f7c6181838a71a779e445600d4c6ecbe16bacf2b3c5bda69c29fada66d1b645d161086d81610a10565b8173ffffffffffffffffffffffffffffffffffffffff163373ffffffffffffffffffffffffffffffffffffffff16847f0648e001a8717cd3989b3e6f2b64d8cfcfd517b0ea4ff9fae6e638307cbb7cb860405160405180910390a4600160009054906101000a900473ffffffffffffffffffffffffffffffffffffffff1673ffffffffffffffffffffffffffffffffffffffff16630ef278ba8433856040518463ffffffff1660e01b8152600401610927939291906112b1565b600060405180830381600087803b15801561094157600080fd5b505af1158015610955573d6000803e3d6000fd5b50505050505050565b7f273dcf2136c7d8ef632bb8ef13dbca69a8f36fa620c7468671b3153d46a211c081565b7f7c6181838a71a779e445600d4c6ecbe16bacf2b3c5bda69c29fada66d1b645d181565b60007f01ffc9a7000000000000000000000000000000000000000000000000000000007bffffffffffffffffffffffffffffffffffffffffffffffffffffffff1916827bffffffffffffffffffffffffffffffffffffffffffffffffffffffff1916149050919050565b610a2181610a1c610a46565b610b62565b50565b610a2d826103ab565b610a3681610a10565b610a408383610bb3565b50505050565b600033905090565b6000610a5a8383610620565b15610b3557600080600085815260200190815260200160002060000160008473ffffffffffffffffffffffffffffffffffffffff1673ffffffffffffffffffffffffffffffffffffffff16815260200190815260200160002060006101000a81548160ff021916908315150217905550610ad2610a46565b73ffffffffffffffffffffffffffffffffffffffff168273ffffffffffffffffffffffffffffffffffffffff16847ff6391f5c32d9c69d2a47ea670b442974b53935d1edc7fd64eb21e047a839171b60405160405180910390a460019050610b3a565b600090505b92915050565b610b49826103ab565b610b5281610a10565b610b5c8383610a4e565b50505050565b610b6c8282610620565b610baf5780826040517fe2517d3f000000000000000000000000000000000000000000000000000000008152600401610ba69291906112e8565b60405180910390fd5b5050565b6000610bbf8383610620565b610c9957600160008085815260200190815260200160002060000160008473ffffffffffffffffffffffffffffffffffffffff1673ffffffffffffffffffffffffffffffffffffffff16815260200190815260200160002060006101000a81548160ff021916908315150217905550610c36610a46565b73ffffffffffffffffffffffffffffffffffffffff168273ffffffffffffffffffffffffffffffffffffffff16847f2f8788117e7eff1d82e926ec794901d17c78024a50270940304540a733656f0d60405160405180910390a460019050610c9e565b600090505b92915050565b600080fd5b600080fd5b60007fffffffff0000000000000000000000000000000000000000000000000000000082169050919050565b610ce381610cae565b8114610cee57600080fd5b50565b600081359050610d0081610cda565b92915050565b600060208284031215610d1c57610d1b610ca4565b5b6000610d2a84828501610cf1565b91505092915050565b60008115159050919050565b610d4881610d33565b82525050565b6000602082019050610d636000830184610d3f565b92915050565b6000819050919050565b610d7c81610d69565b82525050565b6000602082019050610d976000830184610d73565b92915050565b610da681610d69565b8114610db157600080fd5b50565b600081359050610dc381610d9d565b92915050565b600060208284031215610ddf57610dde610ca4565b5b6000610ded84828501610db4565b91505092915050565b600073ffffffffffffffffffffffffffffffffffffffff82169050919050565b6000610e2182610df6565b9050919050565b610e3181610e16565b8114610e3c57600080fd5b50565b600081359050610e4e81610e28565b92915050565b60008060408385031215610e6b57610e6a610ca4565b5b6000610e7985828601610db4565b9250506020610e8a85828601610e3f565b9150509250929050565b600060208284031215610eaa57610ea9610ca4565b5b6000610eb884828501610e3f565b91505092915050565b610eca81610e16565b82525050565b6000602082019050610ee56000830184610ec1565b92915050565b6000819050919050565b610efe81610eeb565b8114610f0957600080fd5b50565b600081359050610f1b81610ef5565b92915050565b600080fd5b600080fd5b600080fd5b60008083601f840112610f4657610f45610f21565b5b8235905067ffffffffffffffff811115610f6357610f62610f26565b5b602083019150836001820283011115610f7f57610f7e610f2b565b5b9250929050565b600080600060408486031215610f9f57610f9e610ca4565b5b6000610fad86828701610f0c565b935050602084013567ffffffffffffffff811115610fce57610fcd610ca9565b5b610fda86828701610f30565b92509250509250925092565b60068110610ff357600080fd5b50565b60008135905061100581610fe6565b92915050565b60008060008060006080868803121561102757611026610ca4565b5b600061103588828901610f0c565b955050602061104688828901610ff6565b945050604086013567ffffffffffffffff81111561106757611066610ca9565b5b61107388828901610f30565b9350935050606061108688828901610f0c565b9150509295509295909350565b600080604083850312156110aa576110a9610ca4565b5b60006110b885828601610f0c565b92505060206110c985828601610e3f565b9150509250929050565b6110dc81610eeb565b82525050565b600082825260208201905092915050565b82818337600083830152505050565b6000601f19601f8301169050919050565b600061111f83856110e2565b935061112c8385846110f3565b61113583611102565b840190509392505050565b600060608201905061115560008301876110d3565b8181036020830152611168818587611113565b90506111776040830184610ec1565b95945050505050565b7f4e6f207065726d697373696f6e20746f207265636f7264000000000000000000600082015250565b60006111b66017836110e2565b91506111c182611180565b602082019050919050565b600060208201905081810360008301526111e5816111a9565b9050919050565b7f4e487b7100000000000000000000000000000000000000000000000000000000600052602160045260246000fd5b6006811061122c5761122b6111ec565b5b50565b600081905061123d8261121b565b919050565b600061124d8261122f565b9050919050565b61125d81611242565b82525050565b600060808201905061127860008301886110d3565b6112856020830187611254565b8181036040830152611298818587611113565b90506112a760608301846110d3565b9695505050505050565b60006060820190506112c660008301866110d3565b6112d36020830185610ec1565b6112e06040830184610ec1565b949350505050565b60006040820190506112fd6000830185610ec1565b61130a6020830184610d73565b939250505056fea2646970667358221220cf27bb2936326ba1ad5bfc789f5423d1069a8e0e7e6d2e3b57f9cf0e53065f2064736f6c634300081c003360a060405234801561001057600080fd5b5060405161198a38038061198a8339818101604052810190610032919061013e565b600073ffffffffffffffffffffffffffffffffffffffff168173ffffffffffffffffffffffffffffffffffffffff16036100a1576040517f08c379a0000000000000000000000000000000000000000000000000000000008152600401610098906101c8565b60405180910390fd5b8073ffffffffffffffffffffffffffffffffffffffff1660808173ffffffffffffffffffffffffffffffffffffffff1681525050506101e8565b600080fd5b600073ffffffffffffffffffffffffffffffffffffffff82169050919050565b600061010b826100e0565b9050919050565b61011b81610100565b811461012657600080fd5b50565b60008151905061013881610112565b92915050565b600060208284031215610154576101536100db565b5b600061016284828501610129565b91505092915050565b600082825260208201905092915050565b7f496e76616c6964207065726d697373696f6e20636f6e74726163740000000000600082015250565b60006101b2601b8361016b565b91506101bd8261017c565b602082019050919050565b600060208201905081810360008301526101e1816101a5565b9050919050565b6080516117726102186000396000818161018b015281816103b60152818161099401526109b801526117726000f3fe608060405234801561001057600080fd5b506004361061007d5760003560e01c8063882471121161005b57806388247112146100ea5780638b8c7e501461011c578063ad6538f31461014f578063dd9833081461016d5761007d565b80630ef278ba14610082578063578d2a4c1461009e5780637ace341b146100ba575b600080fd5b61009c60048036038101906100979190610c59565b610189565b005b6100b860048036038101906100b39190610d36565b6103b4565b005b6100d460048036038101906100cf9190610dbe565b610659565b6040516100e19190610dfa565b60405180910390f35b61010460048036038101906100ff9190610dbe565b6106ee565b60405161011393929190610eb4565b60405180910390f35b61013660048036038101906101319190610ef2565b610825565b6040516101469493929190610fa9565b60405180910390f35b610157610992565b6040516101649190610dfa565b60405180910390f35b61018760048036038101906101829190610ff5565b6109b6565b005b7f000000000000000000000000000000000000000000000000000000000000000073ffffffffffffffffffffffffffffffffffffffff163373ffffffffffffffffffffffffffffffffffffffff1614610217576040517f08c379a000000000000000000000000000000000000000000000000000000000815260040161020e906110b5565b60405180910390fd5b600080600085815260200190815260200160002090508060000160009054906101000a900460ff1661027e576040517f08c379a000000000000000000000000000000000000000000000000000000000815260040161027590611121565b60405180910390fd5b8273ffffffffffffffffffffffffffffffffffffffff168160020160009054906101000a900473ffffffffffffffffffffffffffffffffffffffff1673ffffffffffffffffffffffffffffffffffffffff1614610310576040517f08c379a00000000000000000000000000000000000000000000000000000000081526004016103079061118d565b60405180910390fd5b818160020160006101000a81548173ffffffffffffffffffffffffffffffffffffffff021916908373ffffffffffffffffffffffffffffffffffffffff1602179055508173ffffffffffffffffffffffffffffffffffffffff168373ffffffffffffffffffffffffffffffffffffffff16857f16b85f49bf01212961345d3016c9a531894accf62eb7680f2045d79185cc0ec060405160405180910390a450505050565b7f000000000000000000000000000000000000000000000000000000000000000073ffffffffffffffffffffffffffffffffffffffff163373ffffffffffffffffffffffffffffffffffffffff1614610442576040517f08c379a0000000000000000000000000000000000000000000000000000000008152600401610439906110b5565b60405180910390fd5b600080600087815260200190815260200160002090508060000160009054906101000a900460ff166104a9576040517f08c379a00000000000000000000000000000000000000000000000000000000081526004016104a090611121565b60405180910390fd5b8060040160405180608001604052808760058111156104cb576104ca610f32565b5b815260200186868080601f016020809104026020016040519081016040528093929190818152602001838380828437600081840152601f19601f8201169050808301925050505050505081526020018481526020013273ffffffffffffffffffffffffffffffffffffffff16815250908060018154018082558091505060019003906000526020600020906004020160009091909190915060008201518160000160006101000a81548160ff0219169083600581111561058e5761058d610f32565b5b021790555060208201518160010190816105a891906113e8565b506040820151816002015560608201518160030160006101000a81548173ffffffffffffffffffffffffffffffffffffffff021916908373ffffffffffffffffffffffffffffffffffffffff16021790555050503273ffffffffffffffffffffffffffffffffffffffff16867f813a22031fd88c8b4c80bb9c5c69ea3eae4d7b631bbd8f8698eb44461856c4308787878760405161064994939291906114f6565b60405180910390a3505050505050565b60008060008084815260200190815260200160002090508060000160009054906101000a900460ff166106c1576040517f08c379a00000000000000000000000000000000000000000000000000000000081526004016106b890611121565b60405180910390fd5b8060020160009054906101000a900473ffffffffffffffffffffffffffffffffffffffff16915050919050565b6060600080600080600086815260200190815260200160002090508060000160009054906101000a900460ff1661075a576040517f08c379a000000000000000000000000000000000000000000000000000000000815260040161075190611121565b60405180910390fd5b806001018160020160009054906101000a900473ffffffffffffffffffffffffffffffffffffffff1682600401805490508280546107979061120b565b80601f01602080910402602001604051908101604052809291908181526020018280546107c39061120b565b80156108105780601f106107e557610100808354040283529160200191610810565b820191906000526020600020905b8154815290600101906020018083116107f357829003601f168201915b50505050509250935093509350509193909250565b60006060600080600080600088815260200190815260200160002090508060040180549050861061088b576040517f08c379a000000000000000000000000000000000000000000000000000000000815260040161088290611582565b60405180910390fd5b60008160040187815481106108a3576108a26115a2565b5b906000526020600020906004020190508060000160009054906101000a900460ff168160010182600201548360030160009054906101000a900473ffffffffffffffffffffffffffffffffffffffff168280546108ff9061120b565b80601f016020809104026020016040519081016040528092919081815260200182805461092b9061120b565b80156109785780601f1061094d57610100808354040283529160200191610978565b820191906000526020600020905b81548152906001019060200180831161095b57829003601f168201915b505050505092509550955095509550505092959194509250565b7f000000000000000000000000000000000000000000000000000000000000000081565b7f000000000000000000000000000000000000000000000000000000000000000073ffffffffffffffffffffffffffffffffffffffff163373ffffffffffffffffffffffffffffffffffffffff1614610a44576040517f08c379a0000000000000000000000000000000000000000000000000000000008152600401610a3b906110b5565b60405180910390fd5b600080600086815260200190815260200160002090508060000160009054906101000a900460ff1615610aac576040517f08c379a0000000000000000000000000000000000000000000000000000000008152600401610aa39061161d565b60405180910390fd5b60018160000160006101000a81548160ff0219169083151502179055508383826001019182610adc929190611648565b50818160020160006101000a81548173ffffffffffffffffffffffffffffffffffffffff021916908373ffffffffffffffffffffffffffffffffffffffff160217905550818160030160006101000a81548173ffffffffffffffffffffffffffffffffffffffff021916908373ffffffffffffffffffffffffffffffffffffffff1602179055508173ffffffffffffffffffffffffffffffffffffffff16857f2e0106fefd894a64f62b0e7c75f0824f82827aab6e81c05a6c85fff890860d918686604051610bac929190611718565b60405180910390a35050505050565b600080fd5b600080fd5b6000819050919050565b610bd881610bc5565b8114610be357600080fd5b50565b600081359050610bf581610bcf565b92915050565b600073ffffffffffffffffffffffffffffffffffffffff82169050919050565b6000610c2682610bfb565b9050919050565b610c3681610c1b565b8114610c4157600080fd5b50565b600081359050610c5381610c2d565b92915050565b600080600060608486031215610c7257610c71610bbb565b5b6000610c8086828701610be6565b9350506020610c9186828701610c44565b9250506040610ca286828701610c44565b9150509250925092565b60068110610cb957600080fd5b50565b600081359050610ccb81610cac565b92915050565b600080fd5b600080fd5b600080fd5b60008083601f840112610cf657610cf5610cd1565b5b8235905067ffffffffffffffff811115610d1357610d12610cd6565b5b602083019150836001820283011115610d2f57610d2e610cdb565b5b9250929050565b600080600080600060808688031215610d5257610d51610bbb565b5b6000610d6088828901610be6565b9550506020610d7188828901610cbc565b945050604086013567ffffffffffffffff811115610d9257610d91610bc0565b5b610d9e88828901610ce0565b93509350506060610db188828901610be6565b9150509295509295909350565b600060208284031215610dd457610dd3610bbb565b5b6000610de284828501610be6565b91505092915050565b610df481610c1b565b82525050565b6000602082019050610e0f6000830184610deb565b92915050565b600081519050919050565b600082825260208201905092915050565b60005b83811015610e4f578082015181840152602081019050610e34565b60008484015250505050565b6000601f19601f8301169050919050565b6000610e7782610e15565b610e818185610e20565b9350610e91818560208601610e31565b610e9a81610e5b565b840191505092915050565b610eae81610bc5565b82525050565b60006060820190508181036000830152610ece8186610e6c565b9050610edd6020830185610deb565b610eea6040830184610ea5565b949350505050565b60008060408385031215610f0957610f08610bbb565b5b6000610f1785828601610be6565b9250506020610f2885828601610be6565b9150509250929050565b7f4e487b7100000000000000000000000000000000000000000000000000000000600052602160045260246000fd5b60068110610f7257610f71610f32565b5b50565b6000819050610f8382610f61565b919050565b6000610f9382610f75565b9050919050565b610fa381610f88565b82525050565b6000608082019050610fbe6000830187610f9a565b8181036020830152610fd08186610e6c565b9050610fdf6040830185610ea5565b610fec6060830184610deb565b95945050505050565b6000806000806060858703121561100f5761100e610bbb565b5b600061101d87828801610be6565b945050602085013567ffffffffffffffff81111561103e5761103d610bc0565b5b61104a87828801610ce0565b9350935050604061105d87828801610c44565b91505092959194509250565b7f4e6f74205065726d697373696f6e436f6e74726f6c0000000000000000000000600082015250565b600061109f601583610e20565b91506110aa82611069565b602082019050919050565b600060208201905081810360008301526110ce81611092565b9050919050565b7f4261746368206e6f7420666f756e640000000000000000000000000000000000600082015250565b600061110b600f83610e20565b9150611116826110d5565b602082019050919050565b6000602082019050818103600083015261113a816110fe565b9050919050565b7f4e6f742063757272656e74206f776e6572000000000000000000000000000000600082015250565b6000611177601183610e20565b915061118282611141565b602082019050919050565b600060208201905081810360008301526111a68161116a565b9050919050565b7f4e487b7100000000000000000000000000000000000000000000000000000000600052604160045260246000fd5b7f4e487b7100000000000000000000000000000000000000000000000000000000600052602260045260246000fd5b6000600282049050600182168061122357607f821691505b602082108103611236576112356111dc565b5b50919050565b60008190508160005260206000209050919050565b60006020601f8301049050919050565b600082821b905092915050565b60006008830261129e7fffffffffffffffffffffffffffffffffffffffffffffffffffffffffffffffff82611261565b6112a88683611261565b95508019841693508086168417925050509392505050565b6000819050919050565b60006112e56112e06112db84610bc5565b6112c0565b610bc5565b9050919050565b6000819050919050565b6112ff836112ca565b61131361130b826112ec565b84845461126e565b825550505050565b600090565b61132861131b565b6113338184846112f6565b505050565b5b818110156113575761134c600082611320565b600181019050611339565b5050565b601f82111561139c5761136d8161123c565b61137684611251565b81016020851015611385578190505b61139961139185611251565b830182611338565b50505b505050565b600082821c905092915050565b60006113bf600019846008026113a1565b1980831691505092915050565b60006113d883836113ae565b9150826002028217905092915050565b6113f182610e15565b67ffffffffffffffff81111561140a576114096111ad565b5b611414825461120b565b61141f82828561135b565b600060209050601f8311600181146114525760008415611440578287015190505b61144a85826113cc565b8655506114b2565b601f1984166114608661123c565b60005b8281101561148857848901518255600182019150602085019450602081019050611463565b868310156114a557848901516114a1601f8916826113ae565b8355505b6001600288020188555050505b505050505050565b82818337600083830152505050565b60006114d58385610e20565b93506114e28385846114ba565b6114eb83610e5b565b840190509392505050565b600060608201905061150b6000830187610f9a565b818103602083015261151e8185876114c9565b905061152d6040830184610ea5565b95945050505050565b7f496e646578206f7574206f662072616e67650000000000000000000000000000600082015250565b600061156c601283610e20565b915061157782611536565b602082019050919050565b6000602082019050818103600083015261159b8161155f565b9050919050565b7f4e487b7100000000000000000000000000000000000000000000000000000000600052603260045260246000fd5b7f426174636820616c726561647920657869737473000000000000000000000000600082015250565b6000611607601483610e20565b9150611612826115d1565b602082019050919050565b60006020820190508181036000830152611636816115fa565b9050919050565b600082905092915050565b611652838361163d565b67ffffffffffffffff81111561166b5761166a6111ad565b5b611675825461120b565b61168082828561135b565b6000601f8311600181146116af576000841561169d578287013590505b6116a785826113cc565b86555061170f565b601f1984166116bd8661123c565b60005b828110156116e5578489013582556001820191506020850194506020810190506116c0565b8683101561170257848901356116fe601f8916826113ae565b8355505b6001600288020188555050505b50505050505050565b600060208201905081810360008301526117338184866114c9565b9050939250505056fea26469706673582212206f4abc0d8849eac940ff90db0334df8d56957c31bd5ac93e04fd6b66308508f064736f6c634300081c0033",
  "linkReferences": {},
  "deployedLinkReferences": {}
}